{
	"_format": "hh-sol-artifact-1",
	"contractName": "KonomiPriceOracleAdaptor",
	"sourceName": "contracts/KonomiPriceOracleAdaptor.sol",
	"abi": [
		{
			"inputs": [
				{
					"internalType": "address",
					"name": "_feedFactory",
					"type": "address"
				}
			],
			"payable": false,
			"stateMutability": "nonpayable",
			"type": "constructor"
		},
		{
			"anonymous": false,
			"inputs": [
				{
					"indexed": true,
					"internalType": "address",
					"name": "previousOwner",
					"type": "address"
				},
				{
					"indexed": true,
					"internalType": "address",
					"name": "newOwner",
					"type": "address"
				}
			],
			"name": "OwnershipTransferred",
			"type": "event"
		},
		{
			"constant": false,
			"inputs": [
				{
					"internalType": "contract CToken",
					"name": "cToken",
					"type": "address"
				},
				{
					"internalType": "uint64",
					"name": "subscriptionId",
					"type": "uint64"
				}
			],
			"name": "associateWithSubscription",
			"outputs": [],
			"payable": false,
			"stateMutability": "nonpayable",
			"type": "function"
		},
		{
			"constant": true,
			"inputs": [
				{
					"internalType": "contract CToken",
					"name": "cToken",
					"type": "address"
				}
			],
			"name": "getUnderlyingPrice",
			"outputs": [
				{
					"internalType": "uint256",
					"name": "",
					"type": "uint256"
				}
			],
			"payable": false,
			"stateMutability": "view",
			"type": "function"
		},
		{
			"constant": true,
			"inputs": [],
			"name": "isPriceOracle",
			"outputs": [
				{
					"internalType": "bool",
					"name": "",
					"type": "bool"
				}
			],
			"payable": false,
			"stateMutability": "view",
			"type": "function"
		},
		{
			"constant": true,
			"inputs": [],
			"name": "owner",
			"outputs": [
				{
					"internalType": "address",
					"name": "",
					"type": "address"
				}
			],
			"payable": false,
			"stateMutability": "view",
			"type": "function"
		},
		{
			"constant": false,
			"inputs": [],
			"name": "renounceOwnership",
			"outputs": [],
			"payable": false,
			"stateMutability": "nonpayable",
			"type": "function"
		},
		{
			"constant": false,
			"inputs": [
				{
					"internalType": "address",
					"name": "newOwner",
					"type": "address"
				}
			],
			"name": "transferOwnership",
			"outputs": [],
			"payable": false,
			"stateMutability": "nonpayable",
			"type": "function"
		}
	],
	"bytecode": "0x608060405234801561001057600080fd5b506040516107d43803806107d48339818101604052602081101561003357600080fd5b50516100576100496001600160e01b0361007c16565b6001600160e01b0361008016565b600280546001600160a01b0319166001600160a01b03929092169190911790556100d0565b3390565b600080546001600160a01b038381166001600160a01b0319831681178455604051919092169283917f8be0079c531659141344cd1fd0a4f28419497f9722a3daafe3b4186f6b6457e09190a35050565b6106f5806100df6000396000f3fe608060405234801561001057600080fd5b50600436106100625760003560e01c806366331bba14610067578063715018a6146100835780638da5cb5b1461008d578063c9346b38146100b1578063f2fde38b146100e7578063fc57d4df1461010d575b600080fd5b61006f610145565b604080519115158252519081900360200190f35b61008b61014a565b005b6100956101ca565b604080516001600160a01b039092168252519081900360200190f35b61008b600480360360408110156100c757600080fd5b5080356001600160a01b0316906020013567ffffffffffffffff166101d9565b61008b600480360360208110156100fd57600080fd5b50356001600160a01b0316610298565b6101336004803603602081101561012357600080fd5b50356001600160a01b031661035d565b60408051918252519081900360200190f35b600181565b610152610477565b6001600160a01b03166101636101ca565b6001600160a01b0316146101be576040805162461bcd60e51b815260206004820181905260248201527f4f776e61626c653a2063616c6c6572206973206e6f7420746865206f776e6572604482015290519081900360640190fd5b6101c8600061047b565b565b6000546001600160a01b031690565b6101e1610477565b6001600160a01b03166101f26101ca565b6001600160a01b03161461024d576040805162461bcd60e51b815260206004820181905260248201527f4f776e61626c653a2063616c6c6572206973206e6f7420746865206f776e6572604482015290519081900360640190fd5b806001600061025b856104cb565b6001600160a01b031681526020810191909152604001600020805467ffffffffffffffff191667ffffffffffffffff929092169190911790555050565b6102a0610477565b6001600160a01b03166102b16101ca565b6001600160a01b03161461030c576040805162461bcd60e51b815260206004820181905260248201527f4f776e61626c653a2063616c6c6572206973206e6f7420746865206f776e6572604482015290519081900360640190fd5b6001600160a01b0381166103515760405162461bcd60e51b815260040180806020018281038252602681526020018061067a6026913960400191505060405180910390fd5b61035a8161047b565b50565b6000806001600061036d856104cb565b6001600160a01b03908116825260208201929092526040908101600090812054600254835163ad50db9960e01b815267ffffffffffffffff909216600483018190529351939550919384938493849392169163ad50db99916024808301926080929190829003018186803b1580156103e457600080fd5b505afa1580156103f8573d6000803e3d6000fd5b505050506040513d608081101561040e57600080fd5b508051602082015160408301516060909301519196509450909250905080156104685761045c60ff851661045085670de0b6b3a764000063ffffffff61053816565b9063ffffffff61059a16565b95505050505050610472565b6000955050505050505b919050565b3390565b600080546001600160a01b038381166001600160a01b0319831681178455604051919092169283917f8be0079c531659141344cd1fd0a4f28419497f9722a3daafe3b4186f6b6457e09190a35050565b6000816001600160a01b0316636f307dc36040518163ffffffff1660e01b815260040160206040518083038186803b15801561050657600080fd5b505afa15801561051a573d6000803e3d6000fd5b505050506040513d602081101561053057600080fd5b505192915050565b60008261054757506000610594565b8282028284828161055457fe5b04146105915760405162461bcd60e51b81526004018080602001828103825260218152602001806106a06021913960400191505060405180910390fd5b90505b92915050565b600061059183836040518060400160405280601a81526020017f536166654d6174683a206469766973696f6e206279207a65726f000000000000815250600081836106635760405162461bcd60e51b81526004018080602001828103825283818151815260200191508051906020019080838360005b83811015610628578181015183820152602001610610565b50505050905090810190601f1680156106555780820380516001836020036101000a031916815260200191505b509250505060405180910390fd5b50600083858161066f57fe5b049594505050505056fe4f776e61626c653a206e6577206f776e657220697320746865207a65726f2061646472657373536166654d6174683a206d756c7469706c69636174696f6e206f766572666c6f77a265627a7a7231582003dfc133750e6ddc611cffec4daa1fb1205445dd2d2c88a31cb41a6a4ee197d964736f6c63430005100032",
	"linkReferences": {},
	"deployedLinkReferences": {}
}